:020000000328D3
:100006008316031386010530831286000630FB0033
:100016001330FC00AD30FD00FD0B0F28FC0B0F2844
:10002600FB0B0F280000000086010330FB008A301E
:10003600FC005530FD00FD0B1E28FC0B1E28FB0B9B
:100046001E2800000000831686010A3083128600EF
:100056000630FB001330FC00AD30FD00FD0B3128EF
:10006600FC0B3128FB0B3128000000008601033011
:10007600FB008A30FC005530FD00FD0B4028FC0BD0
:0E0086004028FB0B40280000000003284928FA
:02400E006A2125
:00000001FF
